:020000040800F2
:10000000F0FF0010F11D070875F800083518050805
:10001000911E0708911E0708911E070800000000A6
:1000200000000000000000000000000071F800085F
:100030006DF800080000000069F80008A9DB04085A
:10004000911E0708911E0708911E0708911E0708B8
:10005000911E0708911E0708892E0508512E0508D4
:10006000192E0508E12D0508A92D050849CD06081A
:1000700039CD060829CD060819CD060805CD060894
:10008000F1CC0608DDCC0608911E0708911E070872
:10009000911E0708911E0708911E0708712D05087B
:1000A00049C10408C9C1040839C10408EDC10408E4
:1000B000BDC10408ADC104089DC104082D0A07088C
:1000C000350A0708210A0708290A0708911E0708A8
:1000D000911E0708B9DF0408FDDE040841DE0408AC
:1000E000392D0508911E07082D11010829C10408A2
:1000F00059C1040819C104087DC10408C9CC060807
:10010000911E0708E5A906088DC10408911E07087D
:1001100085DD0408C9DC04085909040845090408F8
:10012000B5CC0608A1CC06088DCC060879CC06080B
:1001300065CC0608911E0708911E0708911E070846
:10014000911E0708911E0708911E0708F5F1000887
:1001500051CC06083DCC060829CC06080DDC040865
:10016000150A07081D0A0708911E0708911E0708AF
:10017000911E0708911E0708911E0708911E070887
:08018000911E0708911E0708FB
:0828000000C00F0800001008E1
:10800000F0B401292A4C2B4D23684FF0000694BF91
:1080100000270127EE626662A6626763676B47EA24
:1080200042076763EE63EC6B002A38D144F4957421
:10803000EC631C6824F001041C601C68E407FCD499
:10804000490289085960D8601968EAB921F04001ED
:10805000196019498B421DD018494FF47410C8603B
:10806000196841F01E011960596941F08001596198
:10807000196841F00101196022B90E4AD36A43F030
:108080000803D362F0BC704741F0400119600A490F
:108090008B42E1D14FF0746041F8500CE0E744F0BE
:1080A0001A04EC63EC6A44F00804EC62C1E700BF18
:1080B000481E0020002C0140586402400064024029
:1080C0001148002302461178032902F1060216D056
:1080D0000133062BF7D10D4AD36D052B0ED0591C59
:1080E00003EB4303D16500EB4303032040F2EB3184
:1080F00040F2FF32187059809A807047704703EB46
:10810000430300EB4303F0E7801E0020481E0020DD
:1081100070B4C3080D4CE25C00F00706B24004EBFB
:10812000D004D2B20020C6F108038B4228BF0B4610
:10813000C3F108052A419840C91A40EA02004FF0ED
:10814000000614F8012FEED170BC7047E81E002025
:10815000084AD2E9553199420AD0D118013391F831
:108160005C110170C3F30A03C2F854310120704757
:1081700000207047481E0020044BD3E95530C01A38
:10818000C0F30A00C0F50060704700BF481E002021
:10819000012380F85130704707B501A8FFF7D8FFD9
:1081A0000028FAD09DF8040003B05DF804FB034BEF
:1081B000D3E95530C01AC0F30A007047481E0020AA
:1081C00001207047024BC3F85C29C3F8601970475F
:1081D000481E0020024BC3F86429C3F86819704791
:1081E000481E00207047704730B4114DD5E9552323
:1081F0009A1AC2F30A020A44B2F5006F13D8A9B161
:1082000001444A1E013810F8014FE918824203F177
:10821000010381F85C41C3F30A03F4D1C5F8583176
:10822000002030BC7047022030BC70470846F8E799
:10823000481E002070B5144C94F86C39002BFBD10B
:10824000F9B101444E1E451E02E0012045F008FC34
:10825000D4F87039D4F874290133C3F30A03934274
:10826000F3D0D4F87029D4F8703915F8011F2244DE
:108270000133C3F30A03B54282F87819C4F87039A0
:10828000E6D1002070BD00BF481E002010B5094C8B
:10829000D4F88030084611465BB1D4F88030052B05
:1082A00007D1002AD4F8843003DDFFF7C3FFD4F8E8
:1082B000843010BD402F002010B590F850100023DE
:1082C00080F8503081B10B4CD4F8802072B1D4F8D2
:1082D0008020052A0CD13C30D4F88430FFF7AAFF67
:1082E000D4F88430012010BD0120FCE71046FAE7E5
:1082F0001846F8E7402F0020002280F85120DBE7E5
:1083000090F85020531C0244DBB280F8503082F8C1
:108310003C1090F851200AB1132B00D9CCE77047DC
:10832000212838B50C4605D022282FD0202813D07C
:10833000002038BD0029FBD0072AF9D11A4BD3F809
:10834000880093F88C1093F88D2093F88E3020607D
:1083500021716271A371EBE70029E9D0072AE7D107
:10836000124AD2F860391BB1D2F85C090968984703
:108370000D4B256820796179A279C3F8885083F87C
:108380008C0083F88D1083F88E20D1E70029CFD0A0
:10839000022ACDD1054AD2F86839002BC8D0098805
:1083A000D2F864099847C3E7402F0020481E0020F8
:1083B000024B0020C3F88000704700BF402F002010
:1083C000054B064A00200521C2F88010C3F8680951
:1083D000C3F86009704700BF481E0020402F0020EE
:1083E000704700BF704700BF704700BF704700BFB5
:1083F000704700BF704700BF704700BF04230148AB
:108400000B8070478801002010B4074A074B92F890
:108410009000122403F114020C8001280CBF1846AE
:1084200010465DF8044B7047402F00208C0100205F
:1084300000487047D01E002000487047D01E002022
:10844000034B93F88400032894BF00200120704759
:10845000481E0020034B93F88400032894BF00209B
:1084600001207047481E0020034B93F88400003819
:1084700018BF0120704700BF481E0020A0B18268CD
:108480000D4B12B107229A7070471978DA600329F0
:108490004FF004000CBF80214FF48071C3E901113B
:1084A0001A611A7598707047034B41F2E47101220A
:1084B0005A545A70704700BF20A100200378022B45
:1084C00010D0006908B9012070470C4B1B78032BB2
:1084D0000EBF0B4B80B24FF6F773984294BF00204B
:1084E000012070470549436841F650028A58B3EBB2
:1084F000422F2CBF01200020704700BF20A1002088
:10850000F7FFFF0F0378022B14D030B4104A4368F2
:10851000006941F6480402F5C2511559096841F64F
:108520003C042B4012595B0A023801FB0030104416
:1085300030BC7047064B426841F6340141F63000CA
:108540005958185800EB410000EB5220704700BF0B
:1085500020A100202DE9F84F494B98420ED003F599
:108560006853083398424ED0464B0020C3E9400080
:10857000A3F8FC00A3F80801BDE8F88F414C424F76
:10858000DFF810810223C4F8943004F19806002526
:10859000FB6AAB42294605F1010503D0D4F8180166
:1085A00059F0FAFA94F81C31D4F8182186F82430DE
:1085B00032623046414659F003FDD4F894309D4272
:1085C00006F13006E4DB002384F80A31D4E92803FD
:1085D000D4F89410B4F89C20B4F8A850C4F828310A
:1085E00012FB01F203FB01F3A4F8FC20B4F89E1087
:1085F000264AA4F80851C4E94003A4F8FE10C4F8C0
:10860000F8200120B8E71F4C1F4F0223C4F8943014
:1086100004F198054FF0000B4FF4806A4FF04009C9
:108620004FF40068FA6A01265A455946B34403D00C
:10863000D4F8180159F0B0FAD4F8181194F81C21A4
:10864000296285F824204FF400314FF00062C5E91B
:108650000212A5F804A0A5F81090A5F80680AE7443
:10866000FFF72EFD28466E7659F0F6FBD4F89420DD
:10867000074B45F8303B9345D4DB84F80A61A5E706
:108680001971EF00402F002088010020484607089C
:108690001C4607081940EF002DE9F04FD84DDFF8D0
:1086A0009083DFF89CA307460E4693460FCD4446C1
:1086B0002DED068B0FC40FCD0FC495E8070089B0D0
:1086C0009AF82E31CDF808B084E80700CDE9047699
:1086D000042B00F26781DFE813F0D201650160012D
:1086E0000500E2019FEDC78ADFEDC78AC749C8F8D8
:1086F0001C10C749C74BC84AC8F81810029900296E
:1087000018BF134638EE887AF5EE006A86EE87AA1F
:10871000C24EDFF830B3C8F824300025DFEDC07A50
:108720009FEDC09A28EE278AF0EE679A059BAB4230
:1087300000F02D811BF8013B0AEB030292F8334154
:10874000002C00F03481DFF800C3002202E0152A7B
:1087500000F02D8102EB420157001CF80100A042FD
:1087600002F10102F3D1514491F85111002900F0B6
:1087700084812046039344F049F8039B8146484690
:10878000039344F063F80178002940F01081039BC3
:1087900057440133DBB2032287F8913187F89021E7
:1087A000B9F1000F00F003812709013F052F04F004
:1087B0000F0000F24D819C4C04EB4701B1F884C0DE
:1087C0004CFA00F111F0010100F04281012101FA9F
:1087D00000F0013800EA0C002744039369F03AF9ED
:1087E00097F89070DFF864C2039B38440CEBC00725
:1087F0000322FB71BA715CF83000776100F13F43EE
:1088000003F57E0304EB9324012194F8983099F842
:10881000082003F01F045B09032B01FA04F100F0A8
:108820001D81042B00F02481022B00F01C81BB88E9
:108830000693B3FA83F3C3F11F03C3F3CC0100EB38
:10884000810103F007030C6A9B000F279F4024EA75
:1088500007040C620C6A02FA03F323430B6202233F
:1088600006A907930CF0B2FE029B002B00F0AE802D
:10887000BAF82C3100EE103AB8EEC00AFCEEC07A1D
:1088800017EE901AD9F80030684A934200F09B80A6
:10889000A2F58062934200F0968002F580429342F6
:1088A00000F0918002F58062934200F08C8002F526
:1088B0008062934200F08780DAF8BC2450084FF6BB
:1088C000FF73B0FBF1F21A44120CB0FBF2F2029803
:1088D000002800F08480B2FBF1F19AF82E01042800
:1088E0008BB200F0828007EE902AF8EE676A66EE9F
:1088F000887A29EE677A9AF82F0104990091A8EEF8
:10890000A67A019049463046C6ED027A86ED037A92
:1089100037F00AFD002D40F39D807368D8F83820A9
:10892000934200F09980012D00F09480D8F85020F7
:10893000934200F09180022D00F08C80D8F86820DE
:10894000934200F08980032D00F08480D8F88020C5
:10895000934200F08180042D7CD0D8F89820934277
:108960007AD0052D76D0D8F8B020934274D0062D59
:1089700070D0D8F8C820D31A18BF012301350122BE
:10898000082D3374727406F118067FF4CFAE2848B0
:1089900009B0BDEC068BBDE8F08F9FED268AF0EEA6
:1089A000488AA3E69FED248AF0EE488A9EE6234A91
:1089B000194BC8F81C200020C8F8243009B0BDECC1
:1089C000068BBDE8F08FDAF8BC0478E7B0EE4A0A0F
:1089D0006AF040FAFCEEC07A17EE901A52E79AF865
:1089E0002E01042819467FF47EAF07EE901A07EE99
:1089F000102AF8EE677AF8EE476A67EEA97A78E708
:108A000074460708ACC5A737ACC5A736A5CC030884
:108A10006DA7040839C7030861A704083C000010CB
:108A20006F12833A00007A441C4607080004014094
:108A300008000010282930386F12033931CA0308A2
:108A4000402F00207E30002090300020FC3000209D
:108A5000716109E7012391E700238FE7114B1C6C3B
:108A600021431964E3E60F4B5C6C21435964DEE655
:108A70000C4B1C6B21431963D9E689467FE69FEDB9
:108A80000A8A0A4BC8F818300023094A04930123C4
:108A90000293C8F81C20074BF0EE488A32E69FED9F
:108AA000068AEEE7003802406F12833A6DA7040889
:108AB000A5CC030861A7040800000000F8B5104E1B
:108AC000D6F8BC44054600680F4664080CF082FCEA
:108AD000B4FBF7F1B1F5803F03D3012CFAD9640858
:108AE000F6E72246284689B243F044FC054BC6F817
:108AF000243D28460449BDE8F840002243F07EBBEF
:108B0000402F00200D400208643C002010B5044CAA
:108B100004480A4621460BF0A9FA204610BD00BFC2
:108B20006C3C002010E0070810B5044C04480A46CD
:108B300021460BF09BFA204610BD00BF6C3C002084
:108B400020E0070810B5044C04480A4621460BF003
:108B50008DFA204610BD00BF6C3C00202CE00708B9
:108B600010B5044C04480A4621460BF07FFA204613
:108B700010BD00BF6C3C002038E0070810B5044C65
:108B800004480A4621460BF071FA204610BD00BF8A
:108B90006C3C002044E0070810B50D4C94F85221BD
:108BA0000023C4F8803012B10A4AC2F82C3E61F0AA
:108BB00079FF20B10423022084F8843010BD054BD6
:108BC000D3F884306367092384F8843010BD00BF74
:108BD000481E0020402F002070B50D4D95F88430C0
:108BE000042B04460E460AD0082B06D1EB6F8342B5
:108BF0000CD0FFF7D1FF022801D0012070BD08235F
:108C0000C5E91F4685F88430022070BD022070BD82
:108C1000481E002070B50379234C002B14BF01239C
:108C2000002384F8B03003D1002384F8843070BD71
:108C30001E4D002195F9332E032045F0EFFB00284F
:108C4000F2D04668304645F0D7FB84F85101002841
:108C5000EAD095F8313E003B18BF0123304684F836
:108C6000523162F0ADFE0BF0AFF938B994F87830BC
:108C700084F88400013384F8783070BD61F0FCFF23
:108C800040B194F878300022013384F8783084F8C9
:108C9000842070BDD5F884306367012384F87800A0
:108CA00084F8843070BD00BF481E0020402F002093
:108CB00010B561F0E1FF58B10C4C94F878300133F5
:108CC000DBB2072B84F8783003D9002384F8843092
:108CD00010BD0BF079F90028F7D0054A0123D2F82E
:108CE0008420626784F8843010BD00BF481E0020D5
:108CF000402F00202DE9F041884C94F8B050002D11
:108D000000F0FA8094F88420854E0227531E082B29
:108D100041D8DFE803F03739A0406A51154005001B
:108D200061F0C0FE002840F0EE80636FD6F884202A
:108D3000FA3393422CD2FFF7BBFF94F88420E5E787
:108D400061F0B0FE0028F0D0D4F880300022012B72
:108D500084F8782040F2DB80E16F94F85201013B07
:108D60000131C4E91F1310B16D4BC3F82C2E08223A
:108D700084F88420A2F10805B5FA85F56D09284626
:108D8000BDE8F08184F8847061F08CFE002843D146
:108D900094F88420531EDBB2022B0AD8604B616F1B
:108DA000D3F884305B1AC82BE4D9FFF781FF94F81D
:108DB0008420042ADED1E2E7236B002BDAD1584B62
:108DC000E66ED3F884306367072284F88420002E8F
:108DD000D0D0D4E91821236F0120B047D8E7636FC2
:108DE000D6F8841064338B42C4D2D4F82C80B8F106
:108DF000000FF4D161F056FE00289ED0E66E84F894
:108E00007880042384F88430002E7AD0D4E91821A5
:108E1000236F4046B047BBE761F0EAFA0028B7D1BC
:108E200096F8353E002BA3F10203B3FA83F314BF87
:108E3000022201225B0984F8792084F87A3061F0FB
:108E4000D7FA00287FF477AF364A0323926CC4F830
:108E5000882084F8843061F0CBFA002898D1304B18
:108E6000C4F8800093F8646EB3F8660ED3F868EE29
:108E7000D3F868CED3F8687ED3F8682E84F88E6075
:108E800093F86C1EA4F88C0093F86D6E84F8922011
:108E900093F86D0ED3F8702EC4F89420B3F8768E44
:108EA000B3F8762E84F89310B3F8761EC2F30B1342
:108EB00043EA182303F00F0301F00F024FEA1E6E7E
:108EC0004FEA1C4C3F0A360900F00F0003F5FA6325
:108ED000042184F8990084F88FE084F890C084F825
:108EE000917084F89860A4F89A3084F89C2084F8F3
:108EF00084102846BDE8F08184F884502846BDE8F7
:108F0000F08105463BE7042384F8843037E7FAD143
:108F1000FFF742FE94F88420531E3CE7481E0020D1
:108F2000402F0020783D00202DE9F84FBA4C94F8EE
:108F3000901E0546C1F34001D4F8980E48F058FC45
:108F400094F8901ED4F8940EC94301F0010148F042
:108F50004FFC002D00F0CD806E1EB04FB04D5FFA7B
:108F600086FB4FF01008D4F8980E48F0A7FAD4F812
:108F7000940E48F0A3FAB4F8A03E002B40F04381D1
:108F800094F8A21ED4F8A40E48F032FC4FF0FA096F
:108F90004FF47A704FF0010C7B68C3F30803002B89
:108FA00040F00881EFF31183002B40F00381D4F8E7
:108FB0008420A968D4F884309A42F8D1D4F8C83E05
:108FC0009942F4D8D4F8C46E00FB06F35B1AB3FBE5
:108FD000F6F300FB02327B68C3F30803002B40F07A
:108FE000A880EFF31183002B40F0A380D4F88430E5
:108FF000D5F808A0D4F884108B42F7D1D4F8C81E55
:109000008A45F3D8D4F8C46E00FB06F1A1EB0A013F
:10901000B1FBF6F100FB03139B1AB3F57A7FDAD3A9
:10902000B9F10109B8D1D4F8980E48F047FAD4F84C
:10903000940E48F043FAB4F8A03E002B40F0D780DD
:1090400094F8A21ED4F8A40E81F0010148F0D0FBE0
:109050004FF0FA0C4FF47A704FF0010E7B68C3F3B7
:109060000803002B40F08680EFF31183002B40F0C3
:109070008180D4F88420A968D4F884309A42F8D149
:10908000D4F8C83E9942F4D8D4F8C49E00FB09F342
:109090005B1AB3FBF9F300FB02327B68C3F30803EE
:1090A0004BBBEFF3118333BBD4F88430D5F808A061
:1090B000D4F884108B42F7D1D4F8C81E8A45F3D86F
:1090C000D4F8C49E00FB09F1A1EB0A01B1FBF9F150
:1090D00000FB03139B1AB3F57A7FDED3BCF1010CBE
:1090E000BCD10BF1FF365FFA86FBBBF1FF0F7FF4BB
:1090F0003AAFBDE8F88FEFF3118988F31288AE68B4
:109100002B68DB0344BFC4F8C0EEAE68D4F88430EB
:10911000D4F8C01E5FFA89F989F31188D4F8C49E87
:109120000B4400FB09F1891BB1FBF9F100FB0313B0
:10913000D0E7EFF3118E88F31288D5F808A02B68DA
:10914000D90344BFC4F8C0CED5F808A0D4F8843001
:10915000D4F8C01E5FFA8EFE8EF31188D4F8C46E68
:109160000B4400FB06F1A1EB0A01B1FBF6F100FB99
:10917000031351E7EFF3118188F31288D5F80890B3
:109180002B68DA0344BFC4F8C0EED5F80890D4F8D1
:109190008430D4F8C02EC9B281F31188D4F8C41E2B
:1091A0001A4400FB01F3A3EB0903B3FBF1F300FB4B
:1091B000023272E7EFF3118188F31288AE682B68F0
:1091C000DB0344BFC4F8C0CEAE68D4F88430D4F812
:1091D000C02EC9B281F31188D4F8C41E1A4400FB12
:1091E00001F39B1BB3FBF1F300FB0232F3E6D4F86F
:1091F000BC3E002B3FF42CAFD4F8A83EC3F800903F
:1092000084F8B99E24E7D4F8BC3E002B3FF4BEAEF0
:1092100044F0EAFCBAE600BF402F002000ED00E079
:1092200010E000E02DE9F84FB74CB84F94F8901ECD
:10923000D4F8980EB64DC1F3400148F0D9FA94F82D
:10924000901ED4F8940EC94301F0010148F0D0FA01
:109250004FF0050B4FF01008D4F8980E48F02EF997
:10926000D4F8940E48F02AF9B4F8A03E002B40F050
:10927000438194F8A21ED4F8A40E48F0B9FA32261D
:109280004FF47A704FF0010C7B68C3F30803002B96
:1092900040F00781EFF31183002B40F00281D4F8F6
:1092A0008420A968D4F884309A42F8D1D4F8C83E12
:1092B0009942F4D8D4F8C4EE00FB0EF35B1AB3FB6A
:1092C000FEF300FB02327B68C3F30803002B40F07F
:1092D000A780EFF31183002B40F0A280D4F88430F4
:1092E000D5F808A0D4F884108B42F7D1D4F8C81E62
:1092F0008A45F3D8D4F8C4EE00FB0EF1A1EB0A01C5
:10930000B1FBFEF100FB03139B1AB3F57A7FDAD3AE
:10931000013EB9D1D4F8980E48F0D0F8D4F8940EA4
:1093200048F0CCF8B4F8A03E002B40F0DA8094F876
:10933000A21ED4F8A40E81F0010148F059FA4FF0B2
:10934000320C4FF47A7001267B68C3F30803002BBC
:1093500040F08780EFF31183002B40F08280D4F837
:109360008420A968D4F884309A42F8D1D4F8C83E51
:109370009942F4D8D4F8C49E00FB09F35B1AB3FBFE
:10938000F9F300FB02327B68C3F308033BBBEFF346
:10939000118323BBD4F88430D5F808A0D4F8841006
:1093A0008B42F7D1D4F8C81E8A45F3D8D4F8C49EAE
:1093B00000FB09F1A1EB0A01B1FBF9F100FB03137A
:1093C0009B1AB3F57A7FDED3BCF1010CBCD10BF153
:1093D000FF3616F0FF0B7FF43FAFBDE8F88FEFF3D9
:1093E000118988F31288D5F808A02B68DB0344BFE5
:1093F000C4F8C06ED5F808A0D4F88430D4F8C01EE4
:109400005FFA89F989F31188D4F8C49E0B4400FBF4
:1094100009F1A1EB0A01B1FBF9F100FB0313CFE75E
:10942000EFF3118E88F31288D5F808A02B68D903C2
:1094300044BFC4F8C0CED5F808A0D4F88430D4F81E
:10944000C01E5FFA8EFE8EF31188D4F8C4EE0B4472
:1094500000FB0EF1A1EB0A01B1FBFEF100FB0313CF
:1094600052E7EFF3118188F31288D5F808902B6842
:10947000DA0344BFC4F8C06ED5F80890D4F884303D
:10948000D4F8C02EC9B281F31188D4F8C41E1A448E
:1094900000FB01F3A3EB0903B3FBF1F300FB023282
:1094A00071E7EFF3118188F31288D5F808E02B6893
:1094B000DB0344BFC4F8C0CED5F808E0D4F884304C
:1094C000D4F8C02EC9B281F31188D4F8C41E1A444E
:1094D00000FB01F3A3EB0E03B3FBF1F300FB02323D
:1094E000F1E6D4F8BC3E002B3FF429AFD4F8A83EF7
:1094F0001E6084F8B96E22E7D4F8BC3E002B3FF41E
:10950000BEAE44F071FBBAE6402F002000ED00E053
:1095100010E000E000F01F0240090123032803FAD5
:1095200002F304D004280CD0022805D07047074A63
:10953000116C0B4313647047044A516C0B43536422
:109540007047024A116B0B431363704700380240A7
:1095500000285FD00368374A2DE9F04103F13F440A
:1095600004F57E0402EB9422012492F8982002F084
:109570001F055209032A04FA05F456D0042A4FD0D5
:10958000022A48D08588B5FA85F0C0F11F00C0F3E3
:10959000CC0603EB860600F0070082000F24306A39
:1095A000944020EA04003062306A01FA02F2024379
:1095B000002132624FF0010E0A464FF0030C0227E1
:1095C0000EFA02F838EA050002F101021CD118680F
:1095D0000CFA01F420EA04001860186807FA01F692
:1095E00006431E609E6826EA04069E60986898609E
:1095F000586820EA0800586058685860D86820EA1F
:109600000400D860D868D860102A01F10201D7D1CF
:10961000BDE8F0817047084A556C2C435464B1E7AB
:10962000054A156B2C431463ACE7034A156C2C43B5
:109630001464A7E71C46070800380240134B026871
:10964000196821EA02011960596821EA020159608A
:1096500019680A431A609968026821EA0201996050
:10966000D96821EA0201D9604179102907D001F1B6
:10967000804303F59E3319680A431A60704799685E
:1096800011439960D9680A43DA607047003C014091
:1096900000286BD0F0B58388B3FA83F3202B85B014
:1096A0000446C3F11F024CD0314D32484FF0004107
:1096B000104405EB820205F60C7731FA03F390F8BB
:1096C000A060C2F8CC7E05D02B4A116821EA0301C4
:1096D000116053612046002143F0FAFAA388226802
:1096E000B3FA83F4C4F11F0303F0FC0101F18041DC
:1096F00001F59C3103F0030398000F2702F13F436B
:109700008A68874022EA070203F57E038A60C3F372
:109710008723834088684FF000420343354422FA90
:1097200004F48B604FF44062012302A88DF80E30E0
:109730000294ADF80C20FFF781FF95F8103FF02B55
:1097400001D805B0F0BD0D4B9B5D8DF80430F021C4
:1097500003224FF4807301A885F8101F8DF80520AF
:10976000ADF806300BF0E8FC05B0F0BD704700BF67
:10977000402F00201C460708003C0140C4E00708B9
:10978000002869D0F0B58388B3FA83F3202B85B025
:109790000446C3F11F024AD0304E314D16444FF0FB
:1097A000004005EB820230FA03F396F8A060C2F89D
:1097B000CC1E05D02B4A116821EA030111605361C8
:1097C0002046002143F084FAA3882268B3FA83F488
:1097D000C4F11F0303F0FC0101F1804101F59C314C
:1097E00003F0030398000F2702F13F438A68874084
:1097F00022EA070203F57E038A60C3F387238340CE
:1098000088684FF000420343354422FA04F48B6029
:109810004FF40062012302A88DF80E300294ADF8D7
:109820000C20FFF70BFF95F8103FF02B01D805B087
:10983000F0BD0D4B9B5D8DF80430F02103224FF4F9
:10984000807301A885F8101F8DF80520ADF806304B
:109850000BF072FC05B0F0BD704700BF1C46070856
:10986000402F0020003C0140C4E00708034BD3F820
:10987000B820136A002BFCD1704700BF481E00209F
:1098800030B51349134B8DB00825012201F1B80002
:10989000069381F8505100230DEB05010DF10704EB
:1098A000CDE90733CDE9034202938DF814300993D3
:1098B0000B938DF828204AF059FBFFF7D7FF9DF84E
:1098C0000700A0F1FF00B0FA80F040090DB030BDF4
:1098D000481E00201916010870B51C4E90B00024D7
:1098E000FD2201250DF1030306F1B80001A98DF851
:1098F00003200693CDE90144CDE90A44CDE90C44A7
:10990000C6F880408DF81040059407948DF82440E7
:109910000F94039508958DF838504AF027FBFFF710
:10992000A5FF28460AF006FBFF2809D0084BD3F80C
:10993000843073672046092386F8843010B070BDE8
:109940000423022086F8843010B070BD481E002029
:10995000402F00202DE9F04103792B4E002B14BF3E
:10996000012200228AB086F8B02004D186F8843023
:109970000AB0BDE8F081044606F1B80794F900107A
:1099800038464AF063FCA47894BB204B2048C6F8C4
:10999000C0404FF00108C6F84C3186F8C4804AF048
:1099A0008BFC1C4D03464FF47A70A6F8BC3044F093
:1099B00057F8D6F8C00047F015FF0FCD6C460FC41E
:1099C0000FCD0FC495E8030084E8030038466946CC
:1099D0004AF0CCFAFFF74AFF0F4B86F88480D3F8A1
:1099E00084307367002386F878300AB0BDE8F081D0
:1099F000204647F0ABFA044608B11E23C380092174
:109A0000204643F041FBC0E7481E0020A81E00206E
:109A1000801A0600CC460708402F002070B5064685
:109A200090B008200D460AF085FAFF2822D0FE28C3
:109A300002D0022010B070BD0024022201230F4882
:109A4000089201A98DF83830CDE90544CDE90A44E2
:109A5000CDE90C440296039501948DF810400794CB
:109A60008DF824400F944AF081FAFFF7FFFE20465C
:109A700010B070BD012010B070BD00BF001F0020ED
:109A800070B592B00B0E0D0C40F0400695220446C6
:109A90008DF80810080A01A98DF805308DF80650D8
:109AA000002306258DF807008DF809200DF103002D
:109AB0000122039114498DF80460CDE90733CDE903
:109AC0000D33CDE9090204938DF818308DF82C3050
:109AD0000F93119305958DF840200C91FFF7D0FE60
:109AE00000B974B9094B082203F1B80003A983F83F
:109AF00050214AF03BFAFFF7B9FE9DF8030012B07F
:109B000070BDFF2012B070BDF1150108481E002085
:109B10002DE9F8431A4C94F88460042E05468946D2
:109B200090461F4608D0082E02D00020BDE8F883DA
:109B3000FFF7D2FE0228F8D1D4F8C00047F04CFE5F
:109B400094F87A309BB969021120FFF799FFA0B908
:109B50000C4BC4F86090D3F8842065660523C4E9F3
:109B60001B87626784F884300120BDE8F8832946AA
:109B70001120FFF785FF0028EAD00AF001FAD4E7A8
:109B8000481E0020402F002070B51E4C94F88430F1
:109B9000042B06460D4608D0082B22D1E36F8342E2
:109BA0002DD0FFF799FE02281BD1D4F8C00047F052
:109BB00013FE00213720FFF763FF29461720FFF728
:109BC0005FFFB0B994F87A306BB971021920FFF7D2
:109BD00057FF70B90823C4E91F6584F88430022058
:109BE00070BD012070BD31461920FFF749FF0028E4
:109BF000F0D00AF0C5F90AF0F9F9032070BD02208F
:109C000070BD00BF481E00202DE9F0412D4C0546D7
:109C1000884617461E4694F88400042836D0082843
:109C200006D1E36FAB4206D0FFF756FE0228F2D012
:109C30000120BDE8F0814FF0FC0CD4F8B820224898
:109C4000117B224B80F817CFC3F8588051B152696D
:109C500042B194F84021002A0CBF4FF480724FF4B7
:109C6000007201E04FF480721A66194919484AF0EF
:109C70007DF901220623C4E91885C4E91B7684F81E
:109C8000682084F884300020BDE8F081D4F8C0005A
:109C900047F0A2FD94F87A305BB969021820FFF70B
:109CA000EFFE40B994F88430082BC4D04FF0FE0C7E
:109CB000C3E72946F2E70AF063F90AF097F90320AF
:109CC000B7E700BF481E0020402F00208801002079
:109CD000B8010020001F00202DE9F04FD14C94F86E
:109CE000B06095B0002E00F0978194F88420CE4F9C
:109CF00004F1B80804F1A009531E082B00F2A1805A
:109D0000DFE813F0370060002F019F008E00B100E4
:109D10001A009F000900FFF7B3FD002840F03A82C7
:109D2000636FD7F88420FA33934280F087800AF07B
:109D30005DF994F88420DFE7FFF7A2FD0028EFD05B
:109D4000D4F880300022012B84F8782040F2388249
:109D5000E26F013B511CC4E91F13082284F88420E0
:109D6000A2F10806B6FA86F67609304615B0BDE8C7
:109D7000F08FD4F8C00047F02FFD00210846FFF710
:109D80007FFE05460AF0FCF8012D57D1D4F8C0003B
:109D90004FF0000A84F879A047F01EFD40F2AB11A5
:109DA0000820FFF76DFE052800F08F81012800F0E4
:109DB00056810AF0E5F894F87920002ACED00223E3
:109DC00084F88430D4F8C00047F006FD94F8793068
:109DD000022B0CBF4FF08045002500213720FFF7F4
:109DE0004FFE29462920FFF74BFE05460AF0C8F82A
:109DF00025BB94F87930022B00F07C8184F87A50EE
:109E0000D4F8C00047F0E8FC00210920FFF738FE35
:109E1000002875D00AF0B4F894F88420531E10E09E
:109E2000206E4FF40071FFF7F9FD012800F0358135
:109E3000022800F03981002800F04A8194F884203B
:109E4000531EDBB2022B0AD8774B616FD3F88430F4
:109E50005B1AC82B84D90AF0C9F894F88420042A24
:109E60007FF47EAF81E7D4F8B820117B136A002914
:109E700000F0DE805269002A00F0DA8094F8402178
:109E8000002A00F0D580B3FA83F35B09002BD5D00C
:109E900004A900250DF10F0302224FF0010A0591DC
:109EA000404605A9CDE90B3A0792CDE90955CDE920
:109EB0000E55CDE91055ADF8105006958DF820508F
:109EC0008DF8345013958DF848A04AF04FF8FFF7FD
:109ED000CDFC9DF80F3003F01F03052B00F06381CC
:109EE0000AF084F8D4F86CB0BBF1000F00F0EA80FF
:109EF0002A46236F616E5046D84794F88420FBE6CB
:109F000010214846FFF78AFD8246002882D10121B0
:109F10007F20FEF7FDF8012805467FF47BAF504611
:109F20000221FEF7F5F8002800F0158101287FF4E2
:109F300071AF16213A20FEF7EBF801308002C4F829
:109F400088000AF01DF8D4F8C00047F045FC002155
:109F50000A20FFF795FD002840F0F680032384F8DF
:109F60008430102105A8FFF759FD00287FF466AF63
:109F70009DF821309DF822109DF81C209DF81500B9
:109F80009DF816501B01DBB243EA111303F5FA6387
:109F9000A4F89A30DDF81D3001F00F0184F89C1010
:109FA0001BBA110902F00F0245EA002084F898104C
:109FB00084F899209DF814109DF81720C4F8943067
:109FC000069BC4F89030A4F88C0084F88E1084F8B6
:109FD0008F2009F0D5FF94F87A3073B9D4F8C00017
:109FE00047F0FAFB4FF400711020FFF749FD0546DA
:109FF00009F0C6FF002D7FF49AAE0C484AF05CF9D8
:10A0000000220423A4F8BC003046C4F8802084F861
:10A01000843015B0BDE8F08F304684F8846015B008
:10A02000BDE8F08F481E0020402F002040787D01C1
:10A03000236E94F868106A4803EB012100224FF464
:10A0400080734AF059FB94F868300133DBB284F82E
:10A050006830A3F10203B3FA83F35B0916E7042324
:10A0600004AA8DF8340005A95D4807930692CDE94E
:10A0700009AACDE90BAACDF814A08DF820A0CDF83F
:10A0800038A049F073FFFFF7F1FB9DF81330AB2BBD
:10A0900004BF022384F879308BE6636FD7F88420FD
:10A0A00064339342BFF4CAAE09F06AFF09F09EFF21
:10A0B000E56E3DB100221046236F616EA84794F80B
:10A0C000842019E694F8842016E684F8795070E626
:10A0D000019009F055FFE56E019884F8780004239B
:10A0E00084F88430002D3FF440AED4E91821236F6A
:10A0F000A847A3E6D4F8C00047F06EFB29463A20F3
:10A10000FFF7BEFC04A982460422012306914046C3
:10A1100005A907928DF83430CDE90955CDE90B55E5
:10A1200005958DF820500E9549F020FFFFF79EFB16
:10A13000BAF1000F08D109F023FF049B1BBAC3F347
:10A14000807384F87A305BE609F01AFF09F04EFF5D
:10A1500094F88420D0E504212C20FDF7D9FF0321B9
:10A1600082464E20FDF7D4FF0C2183463620FDF7B2
:10A17000CFFF0BF1020B421C02FA0BF205FA0AF5B3
:10A18000A2FB0501420A42EAC152C4F8882009F044
:10A19000F7FED8E6019009F0F3FE01980423064685
:10A1A00084F88430E1E50F4BE56ED3F884306367C3
:10A1B000072284F88420002D3FF4D2AD504694E766
:10A1C00008D0042384F8843009F0DAFE94F884205F
:10A1D000531E36E6FFF780FB02287FF42FAE19E608
:10A1E000001F0020402F002010B4B8B10D4CD4F84F
:10A1F000183F102B05D15DF8044B0521002043F0DA
:10A200008FB803EB4302224482F81D1F01210B4447
:10A2100082F81C0F82F81E1FC4F8183F5DF8044B2B
:10A22000704700BF402F002080782021DCE700BF6E
:10A230002DE9F04FDFF8ACA32DED028B9AF8601FEB
:10A24000002297B0CAF8502FCAF8542FCAF8582FD6
:10A25000CAF85C2FCAF84C2F19B19AF8612F8AF806
:10A260004C2F9AF8622F1AB19AF8632F8AF85B2F55
:10A270009AF8662F1AB19AF8672F8AF8562F9AF82B
:10A28000642F1AB19AF8652F8AF8512F9AF8683F0F
:10A2900005935A1ED3B257B203937B1C00F0AA80D9
:10A2A000C54AC64E52F83790029602EBC702002309
:10A2B0001279019308EE102A1D46344698462678F6
:10A2C000394630464AF058FD83463046BBF1000F10
:10A2D0001ED046F03BFEEA1D1321D2B220B14FF052
:10A2E000000E827180F807E042F0CEFE20784AF03E
:10A2F00075FD4FF0070308F1010223714FF00103D0
:10A3000084F802806070CDF804B05FFA82F8E370E0
:10A310000135042D04F10504D1D118EE100A029E76
:10A32000CDF81080FFF7F6F8A549A64A4868024024
:10A3300042F440324A600FB9019B5BB9A24C4820FD
:10A34000FFF7E8F82046022166F086FBA26842F09B
:10A350000102A2609A489C4A4168BAF86A4F41F4E7
:10A3600000014160516821F480515160916B21F4EA
:10A37000401141F480119163D16841F46001D160D2
:10A38000956B85F44011C1F3015101EB81011F2050
:10A3900000FA01FC25EA0C0C112505FA01F141EA4D
:10A3A0000C019163D16841F4E011D160956BC5F364
:10A3B0000151C1F10401C9B201EB810188404FF0A4
:10A3C000100C25EA00000CFA01F108439063E4B197
:10A3D000BAF86C1FCAF8744FA1B1BAF86E2FCAF858
:10A3E000781F62B1019B7948521A90FBF2F2CAF8C9
:10A3F0007C2F6BB917B0BDEC028BBDE8F08F744AAF
:10A400001288EFE7734A1188E7E7734A1488DFE799
:10A410004846049966F020FB684B012003F11408BC
:10A420000723F278441CE4B252B375783279A5F16F
:10A430000A0101EB410105EB450C092D03FA01FE70
:10A4400003FA0CFB02FA01F140F2A080D9F80C20CB
:10A4500022EA0E0E41EA0E01C9F80C10421E02EB70
:10A4600082021F21062801FA02FC05FA02F273D8C3
:10A47000D9F8341021EA0C010A432046C9F83420E7
:10A480000536B045CDD1D9F80820039942F40072C1
:10A49000C9F80820D9F8082042F48072C9F80820C9
:10A4A000D9F80820574442F00102C9F8082097F96A
:10A4B000702F022043F0B2FF044600289AD046686D
:10A4C000304643F099FF454A431E242101FB0323F4
:10A4D00093F89C50002D8DD1059983F89D1006228C
:10A4E00083F89C20002885D0304643F085FF61F03A
:10A4F00093F960680AF0C8FE07A80AF087FE049E78
:10A50000A26837480792012E8CBF4FF48063002366
:10A510000D9309F14C034FF48072CDE90A5608936C
:10A5200009904FF4003360680C9507A94FF4006759
:10A530004FF40056CDE91023CDE90E760AF078FEEF
:10A540006268136843F001031360D9F8083043F0E0
:10A550008043C9F808304DE7C11FA0F10D0201EB9F
:10A5600081014FF01F0E02EB82020C280EFA01FC53
:10A570000EFA02F005FA01F113D8D9F8302022EAD8
:10A580000C0211432046C9F8301079E7D9F81010B1
:10A5900002FA0CF221EA0B0B42EA0B02C9F8102076
:10A5A0005CE7D9F82C1005FA02F221EA00010A430F
:10A5B0002046C9F82C2063E7F44607088C3E0020AB
:10A5C00000230140E030FCFF002001408038010002
:10A5D0002E7AFF1F2C7AFF1F2A7AFF1F8801002086
:10A5E000C03E0020402F00202DE9F0472E4C0546AC
:10A5F00000EB800004EBC004D4F88C7F2FB10E4632
:10A6000094F8A11F01F0FF0821B14FF00008404667
:10A61000BDE8F0879946924643F0F6F971000123B0
:10A62000C9B284F8A21F84F8A3AF84F8A53F84F8C8
:10A63000A68F84F8A43F84F8A13F84F8A08FBA883D
:10A64000C4F8A89F91050646C4F8AC9F1CD43B886B
:10A65000DA050FD442F20F7404E043F0D5F9831BFE
:10A66000A34215DC3B889B05F7D43B889BB243F49F
:10A6700080733B80BB889BB243F440734FF001086A
:10A68000BB804046BDE8F08798464046BDE8F0876D
:10A69000064A32F8F83C01339BB2284622F8F83CCF
:10A6A00065F0FCFCB3E700BF402F002038400020DD
:10A6B00070B5464E16F8F64C04EB440306EBC303A4
:10A6C000650013F8F43C032B6ED8DFE803F059293A
:10A6D0001E02254406EBC50555F8F00C002870D184
:10A6E00016F8943C9C425FD0013404F0030293427C
:10A6F00006F8F62C58D002EB420406EBC404022301
:10A7000044F8F00C04F8F43C70BD2B1906EBC303BD
:10A7100053F8F02C72B1013A43F8F02C002070BDD0
:10A720002B1906EBC30353F8F02C002AF3D10222B5
:10A7300003F8F42C254406EBC50515F8E83C013B6D
:10A74000DBB205F8E83C8BBB214B16F8946CD3F8D0
:10A75000C01255F8EC0C621C02F003024B1E0324DD
:10A76000B242034405F8F44CB3FBF1F045F8F00CA9
:10A770001AD0994218D8013845F8F00C012070BD64
:10A780004AF0F0F980B1124B2C44D3F8C02206EB0A
:10A79000C404012102F51C5304F8F41C0F33B3FB6D
:10A7A000F2F344F8F03C70BD012070BD084BD3F8C3
:10A7B000C022012002F2E733B3FBF2F345F8F03C8C
:10A7C00070BD013845F8F00C002070BD3840002005
:10A7D00088010020054B13F8932C002AFBD1D3F8F5
:10A7E000D03A03491B6801F10C001847384000209B
:10A7F000A83F00202DE9F84F3249DFF8D4B091F896
:10A80000351E01240229074619461046CBF82C4074
:10A810004FF000022C4C1D4618BF7F02FDF7F0FBE5
:10A820002A4B63626B02A362E36A40F2FF5943F072
:10A8300093034FF400704FF48A62E3620121C4F87D
:10A840003890A0601020E2605FF01EFF012D40F202
:10A8500051434E46C4F83890CA4640F252488EBF23
:10A860004FF0120998464FF011090A25C4F838A094
:10A870000121A7604846C4F80C805FF005FF03463D
:10A880004FF0000C40F2774201213720A6632BB92C
:10A8900000231846CBF82830BDE8F88FA663C4F82B
:10A8A00008C0E2605FF0F0FE013DA6630028EFD033
:10A8B00015F0FF05DAD10346CBF82C50CBF8283041
:10A8C000BDE8F88F402F0020002C014000E1F50585
:10A8D000481E00202DE9F843DFF8748098F8845072
:10A8E000042D0446894617461E4608D0082D02D07E
:10A8F0000020BDE8F883FEF74FF90228F8D10123C4
:10A900004A4620460021FFF775FF68B1FEF7D0F9EF
:10A91000D8F86C40002CEBD00022D8F87030D8F872
:10A9200064101046A047E3E7084BC8F86090D3F8DE
:10A930008420C8F864400523C8E91B76C8F8742051
:10A9400088F884300120BDE8F88300BF402F002044
:10A95000481E00202DE9F84F2F49DFF8C49091F8E8
:10A96000351E1E4602292D4B07464FF0010418BF25
:10A970004702012E40F259481C6398BF4FF48B6880
:10A980003B469346474640F2FF55B0468CBF4FF0DA
:10A99000190A4FF0180A0A241E4640F2FF53C9F85C
:10A9A00038300121C9F808605046C9F80C705FF0D2
:10A9B0006BFE03464FF0000C40F277420121372036
:10A9C000C9F83850A3B9584641460122FDF718FB93
:10A9D0004646134A134B536276029662D36A43F09B
:10A9E0009103D3620D4B002108469962BDE8F88FB0
:10A9F000C9F83850C9F808C0C9F80C205FF044FE07
:10AA0000013CC9F838500028DDD014F0FF04C4D14F
:10AA1000024B1C63BDE8F88F402F0020481E002029
:10AA2000002C014000E1F5052DE9F047374C82B0DC
:10AA300005460E461746984694F8840004280CD024
:10AA4000082806D1E36FAB4207D0FEF7A5F802282D
:10AA5000F2D0012002B0BDE8F087DFF8B8A026668A
:10AA6000DAF82C9E6566C9F34F210F294FEA592267
:10AA700023D8D4F880300193FBB194F85201E0B1AF
:10AA8000B9F5005F13D0224831464FF400724844B4
:10AA900069F012FD09F50072C2F34F211029CAF8BE
:10AAA0002C2E4FEA522202D0019B012B21D192B2CF
:10AAB000013A174EAD1A0B4600E0012332462846F4
:10AAC000062601250021E766C4F8708084F86850E6
:10AAD00084F88460FFF73EFF0028BBD0FEF7E8F85B
:10AAE000E66E86B12846236F616E0022B0470320D0
:10AAF000B0E7E26F013B01320421C4E91F2384F86F
:10AB000084100220A6E70320A4E700BF481E00200F
:10AB100020710020402F002003681A78012A01D0FC
:10AB20000020704793F90430044A03EB830302EBDF
:10AB3000C30393F8A10FC0B2704700BF402F00209D
:10AB4000F0B53B4CD4F8D45A2B78022B95B018D0E2
:10AB5000012B02D0002015B0F0BD95F904506B1CFC
:10AB6000F8D0022DF6DC0091134694F8D81A02466C
:10AB7000284665F035FC0028ECD0284665F0E0FC5E
:10AB8000E9E72B6A002BE5D10DF10F0C8DF80F00D2
:10AB9000002601200027CDE90833CDE90A12CDE9CE
:10ABA0000E6705938DF81C300D9310931293CDF81A
:10ABB00010C006908DF830008DF84400EFF311803E
:10ABC000102383F31288D4F8D43A1B6A13B3069B7C
:10ABD00004AE32461BB1D3691432002BFBD12B6A71
:10ABE00013B3996839B993420AD0196829B15B68DF
:10ABF00099680029F7D01433F3E70E4AC3E9002619
:10AC0000C0B280F31188D4F8D42A136A002BFCD187
:10AC10000120A0E704ABC0B22B6280F3118804F6D8
:10AC2000D42062F04BF9EEE7024A1A60FFDE00BF63
:10AC3000384000200C4B002070B503681D78022DB1
:10AC400014D0012D01D0002070BD044693F90400FA
:10AC50000A4B421C83F8A05BF5D00228F3DC0A46BD
:10AC600003F53A632179BDE87040BDE41B6A002B0F
:10AC7000E9D1012249F0A0FC012070BD384000203C
:10AC800010B50C4CD4F8D43A1B78022B10D1D4F860
:10AC9000DC0A46F0A7FDD4F8DC0A08B12123C38002
:10ACA000012142F0F1F9044849F006FBA4F8D80A62
:10ACB00010BD00BF384000208096980038B505468A
:10ACC0000A460C460648294649F076FC45F08001C4
:10ACD000034849F01BFB231A5842584138BD00BFB6
:10ACE0000C4B002030B583B00D46012301460DF119
:10ACF00007020446074849F0CFFD9DF8072035EAD2
:10AD0000020304D003482A43214649F05BFE03B006
:10AD100030BD00BF0C4B002013B53A4C0023D4F8D3
:10AD2000B02B8DF80730137803F0FD01012905D110
:10AD300094F8B41B11B90C2184F8B41B022B1ED05B
:10AD4000032B2ED001220B212F485DF059FC04204B
:10AD500042F086FE2C4801230DF1070200215DF030
:10AD600071FC002839D09DF80730482B35D1274B8E
:10AD7000C4F8A43B264BC4F8A83B02B010BDD4F8DD
:10AD8000B80B46F02FFDD4F8B80B08B13523C380BB
:10AD9000012142F079F91F4849F08EFAA4F8B40B6A
:10ADA000D0E71D4B50681B6846F2A81119610023BB
:10ADB00080F88830122237215DF0F6FBD4F8B03BE2
:10ADC0000D22586824215DF0EFFBD4F8B03B30220F
:10ADD00058686A215DF0E8FBB4E7D4F8B03B1A7814
:10ADE000022A03D0032A07D00020C6E7D4F8B80B04
:10ADF00048F022FA0020C0E75868102237215DF0A1
:10AE0000D3FBF1E738400020E84B0020A38606087A
:10AE10002587060880969800985000202DE9F04F6D
:10AE2000B64CB74E95B0002305464FF4F0728B46F2
:10AE300004F56B70202184F8A83384F8A9330195B8
:10AE400069F09BFB202104F28C504FF4F07269F002
:10AE500094FBDFF8C4C2AB4932274FF0100E4FF419
:10AE60007A704FF00108DCF80430C3F30803002BBC
:10AE700040F0BC80EFF31183002B40F0B780D6F890
:10AE800084208D68D6F884309A42F8D1D6F8C83E2E
:10AE90009D42F4D8D6F8C49E00FB09F35B1BB3FBBC
:10AEA000F9F300FB0232DCF80430C3F30803002B93
:10AEB0007BD1EFF31183002B77D1D6F88430D1F812
:10AEC00008A0D6F88450AB42F7D1D6F8C85EAA45A0
:10AED000F3D8D6F8C49E00FB09F5A5EB0A05B5FB2F
:10AEE000F9F500FB03539B1AB3F57A7FDBD3013FDF
:10AEF000B9D194F86D27002A52D094F86E37013BEF
:10AF0000022B4DD803EB830104EBC1007E4D90F87A
:10AF1000707705EBC1014FF0010C022FC4F8E81760
:10AF200084F870C800F0C382DBB204EB0313D3F8DB
:10AF30008038C0F874379BB302234FF4807780F8D1
:10AF4000703705F18803C435A0F87C77C0F88837DE
:10AF5000C0F88C571509013D052D02F00F0200F2D3
:10AF600089826A4F07EB4503B3F8840040FA02F385
:10AF7000DB0740F17F82012303FA02F2013A10401D
:10AF80003D4466F067FD95F89020614B104403EB5B
:10AF9000C000C4F8F0078379002B47D0412B45D07F
:10AFA0006FF0010015B0BDE8F08FEFF311898EF35B
:10AFB0001288D1F808A00B68DD0344BFC6F8C08E24
:10AFC000D1F808A0D6F88430D6F8C05E5FFA89F9C7
:10AFD00089F31188D6F8C49E2B4400FB09F5A5EB34
:10AFE0000A05B5FBF9F500FB03537CE7EFF3118588
:10AFF0008EF31288D1F808900B68DB0344BFC6F8C3
:10B00000C08ED1F80890D6F88430D6F8C02EEDB2B4
:10B0100085F31188D6F8C45E1A4400FB05F3A3EB50
:10B020000903B3FBF5F300FB02323CE72323C380A3
:10B03000092141F04DFED4F8F037002B00F0658275
:10B040001A68D4F8E8179B881383D6F8BC24314BD0
:10B05000B3EB920F80F03182B3EBD20F80F02F82EE
:10B06000B3EB121F80F02F82B3EB521F80F02F82C0
:10B07000B3EB921F80F02F82B3EBD21F80F02F82B0
:10B08000B3EB122F80F02D824FF480720023FF204B
:10B090000DF10F08A4F8EC270122CDE90483CDE9D6
:10B0A0000833CDE90A338DF80F000D9306928DF821
:10B0B0001C208DF83020EFF31180102383F31288C9
:10B0C000D4F8E8371B6A002B00F0D881069B04AD4A
:10B0D0002A461BB1D3691432002BFBD10B6A002B1B
:10B0E00000F01C82996839B99A421AD01968A9B13E
:10B0F0005B6899680029F7D01433F3E730510020DA
:10B10000402F002010E000E0A05800201C46070857
:10B11000FC300020404B4C0000ED00E0B74AC3E992
:10B120000025C0B280F31188D4F8E8170B6A002B11
:10B13000FCD18C220120CDE908330DF10E0A0593D4
:10B140008DF81C300D93109312938DF80E20002370
:10B150000022CDE90E23CDF82880CDF810A006906E
:10B160000B908DF830008DF84400EFF31180102320
:10B1700083F31288D4F8E8371B6A002B00F087812C
:10B18000069B2A461BB1D3691432002BFBD10B6AF4
:10B19000002B00F0C381996839B99A420AD0196826
:10B1A00029B15B6899680029F7D01433F3E7934A13
:10B1B000C3E90025C0B280F31188D4F8E827136AE8
:10B1C000002BFCD19DF80F301B2B40F09081D4F860
:10B1D000F037012284F8A8230BB12322DA80DFF8AC
:10B1E0001C92402248460A2149F0E6F98A210023B0
:10B1F00001228DF80E1000200021CDE90E01CDE9CD
:10B200000833D4F8E817CDF810A0CDF828800593BE
:10B210008DF81C300D931093129306920B928DF8BB
:10B2200030208DF84420EFF31180102383F312882F
:10B23000D4F8E8371B6A002B00F03181069B2A46C0
:10B240001BB1D3691432002BFBD10B6A002B00F029
:10B250006281996839B99A4209D0196829B15B6845
:10B2600099680029F7D01433F3E7C3E90095C0B219
:10B2700080F31188D4F8E827136A002BFCD19DF8DD
:10B280000F2094F86C17C2F3801284F8B0280029BC
:10B2900000F0D480022900F0B980D6F8BC345849B7
:10B2A000B1EB930F80F01F81B1EBD30F80F00981D8
:10B2B000B1EB131F80F00981B1EB531F80F00981BE
:10B2C000B1EB931F80F00981B1EBD31F80F00D81AA
:10B2D000B1EB132F34BF4FF48076802694F8B41866
:10B2E000A4F8B268182914D1464F474800215B08DA
:10B2F000B3FBF6F3A7FB03730F465B0B66F30F0775
:10B300006BF30F0163F31F4762F31F41C4F8B818D2
:10B3100047603A48A4F8EC670222002149F04CF952
:10B32000C82042F045F9D4F8E8074FF0800B00261A
:10B33000002700230122CDE90E67CDE908338DF8FF
:10B340000EB0CDF810A0CDF8288005938DF81C30F4
:10B350000D931093129306920B928DF830208DF876
:10B360004420EFF31182102383F31288D4F8E837D6
:10B370001B6A002B38D0069B002B3DD02B46D96989
:10B3800014330029FBD1006A002800F0C1808168D5
:10B3900039B9834209D0016829B140688168002920
:10B3A000F7D01430F3E7C0E90095D2B282F31188E8
:10B3B000D4F8E807036A002BFCD19DF80F3013F096
:10B3C0000203B6D1019841788278007884F8C008E9
:10B3D000C1F12001C2F11002184684F8C11884F8A6
:10B3E000C22815B0BDE8F08F0562D2B282F3118891
:10B3F000024861F063FDDBE72B46C4E718590020E3
:10B40000809698005917B7D1E8590020D6F8BC3477
:10B410004448B0EB930F73D2B0EBD30F51D2B0EBE3
:10B42000131F52D2B0EB531F53D2B0EB931F54D221
:10B43000B0EBD31F34BF802640264FE7D6F8BC348C
:10B440003949B1EB930F4ED2B1EBD30F39D2B1EBF7
:10B45000131F3AD2B1EB531F3BD2B1EB931F3CD237
:10B46000B1EBD31F41D2B1EB132F34BF4FF4807631
:10B47000802633E70023C4F8F037E6E504ADC0B218
:10B480000D6280F31188294861F018FD4CE60D62C9
:10B49000C0B280F31188254861F010FD8DE60D6281
:10B4A000C0B280F31188484661F008FDE2E690F8EA
:10B4B0007D37634480F87D374CE50222E6E50422BF
:10B4C000E4E504260AE70822E0E5082606E710225C
:10B4D000DCE5102602E72022D8E52026FEE6402201
:10B4E000D4E58022D2E50226F8E64026F6E6D4F836
:10B4F000F00738B1202141F0EBFB4FF0FF3051E570
:10B500000E46EBE64FF0FF304CE5D4F8E8179CE52B
:10B51000C0F80090FFDEC3F80090FFDE034A1A6017
:10B52000FFDE00BF002D3101404B4C0018590020B8
:10B530000146014848F0EABEF4590020014488421F
:10B540000ED010B40346074C074813F8012B04FB38
:10B5500000F0994280EA0200F7D15DF8044B704791
:10B560000148704793010001C59D1C81094B93F868
:10B570002E31042B08D9053B032B08D801231A468A
:10B5800000B103701046704700230122F8E7002342
:10B590001A46F5E7402F0020F0B40D6800240CE0B7
:10B5A000BCF1050F18D8A0F137030A2B14D104EB16
:10B5B000840415F8010B03EB4404A0F13003DEB260
:10B5C000092EA0F16107A0F1410CF0D9052FE7D8B1
:10B5D000A0F157030A2BEAD00D601460F0BC70474D
:10B5E0009FED727A07EE901A20EE070AF8EE677A5E
:10B5F00027EE800AFDEEC07A17EE903A2033402BFA
:10B6000000F2C480DFED6A7AB4EEE70AF1EE10FAD8
:10B61000F0EE407A0CDD9FED676ADFED676AB0EE11
:10B62000677AB4EEE67AF1EE10FA77EEC67AF6DCD7
:10B630009FED627AF4EEC77AF1EE10FA0CD59FED29
:10B640005D6ADFED5F6AB0EE677AB4EEE67AF1EE3E
:10B6500010FA77EE867AF6D49FED5A7AF4EEC77A2E
:10B66000F1EE10FA00F38A809FED577AF4EEC77A74
:10B67000F1EE10FA44BF9FED517A77EE677A27EE2C
:10B68000A76ADFED525A9FED527ADFED526AA6EEBD
:10B69000257A67EE865AE6EE076AB6EE007AE5EEA0
:10B6A000A67A27EE877ADFED476A70EE267ABDEE3E
:10B6B000E76A16EE103A2033402B64D8B4EEE60A5F
:10B6C000F1EE10FA0CDDDFED3B5A9FED3B6AF0EE38
:10B6D000676AF4EEC66AF1EE10FA77EEE57AF6DC08
:10B6E000DFED366AF4EEE67AF1EE10FA0CD5DFED16
:10B6F000315A9FED336AF0EE676AF4EEC66AF1EEF6
:10B7000010FA77EEA57AF6D4DFED2E6AF4EEE67A3B
:10B71000F1EE10FA3DDDDFED266A76EEE77A67EEB0
:10B72000A75A9FED2A5A9FED2A6ADFED2A6AA5EEF5
:10B73000856A27EEA55AE5EE866AB8EE006AE5EE60
:10B74000267A67EE867AC7EE206AB7EE006A76EE52
:10B75000865A76EE666A86EE257A80ED091A67EEDD
:10B76000277A66EE876AC0ED017AC0ED037A80ED34
:10B77000007A80ED027AC0ED046A70479FED0C7A82
:10B7800077EE677A7BE7DFED147ADCE79FED127ADC
:10B7900089E7DFED0D6AF4EEE67AF1EE10FA44BFC8
:10B7A000DFED066A76EEE77AB9E700BF27D4D23636
:10B7B000DB0F4940DB0FC940E4CB1641DB0F49C02A
:10B7C000E4CB16C1DB0FC93FDB0FC9BF92E741B91C
:10B7D0009730083C15A82ABE000000002DE9F84368
:10B7E000E14FDFF8E4E3D7ED3E7A2DED028BF8EE82
:10B7F000670A9EF85C4907F26C63C3ED000A002CEF
:10B800006FD1DFF8C8C397F87866C7F874469CF81C
:10B810000040002E39D0BEF862399FEDD46A9FED0A
:10B82000D47A07EE903AF8EE677A20EE877AC6EE81
:10B83000276AD04B0022012E1A6076EE876AC7EE87
:10B84000267AC3ED017A20D0022E9A60C3ED037AE6
:10B850001BD0032E1A61C3ED057A16D0042E9A610F
:10B86000C3ED077A11D0052E1A62C3ED097A0CD008
:10B87000062E9A62C3ED0B7A07D0072E1A63C3ED2A
:10B880000D7A02D09A63C3ED0F7ABB4B9FEDBB6A72
:10B8900093F84E319FEDBA7A9FEDBA0ABA4A07EE95
:10B8A000903AF8EEE77A9CF8583BC6EE276A1C44BB
:10B8B00014FB06F6F6B207EE906A60EE870AF8EE21
:10B8C000E77AC2ED006AA7EEA00A67F0CFFBBDECF5
:10B8D000028BFCEEC07A17EE903A87F8C837BDE8C5
:10B8E000F883BCEEE06A9FEDA97A9EF85D39BEF858
:10B8F00060299FEDA72ADFEDA76ADFF8D0C297F88D
:10B900007866C7F874C6F8EE465A07EE903A87EEA6
:10B91000255A8CF8004007EE102ABEF85E298CEDFF
:10B92000025A16EE103AF8EE677A06EE102AB8EED2
:10B93000C77A27EE822AB8EE466A67EE266ACCF806
:10B940001430012322EE252ACCED017A8CED036A16
:10B95000CCED046A87F87036002E96D0DFED8E7A33
:10B960009FED8E4ADFED8E5AC7EE871AC6EB06159D
:10B97000A6EB06190CEBC5054FEAC9094FF0000804
:10B98000B1EE611A9FED876A09EB05009FED863ADB
:10B99000DFED863ADFED866A0346002207EE902A45
:10B9A000B8EEE77A27EE027AFDEEC77A17EE901A24
:10B9B0002031402900F2D080B4EEC47AF1EE10FAC2
:10B9C000F0EE477A0CDDDFED7B4A9FED7B5AF0EE1F
:10B9D000672AF4EEC52AF1EE10FA77EEE47AF6DC87
:10B9E000F4EEE57AF1EE10FA0CD5DFED724A9FED38
:10B9F000735AF0EE672AF4EEC52AF1EE10FA77EEEC
:10BA0000A47AF6D4F4EEC67AF1EE10FA40F39A80F6
:10BA100074EE677A27EEA75AB0EE630AA5EE030A22
:10BA2000DFED674AE5EE004A65EE272AB7EE005AD9
:10BA3000E2EEA47AB0EE458AF0EE454AA1EEA78A7E
:10BA4000E1EE274AC5EE088A84EE880A77EE067A88
:10BA5000BDEEE75A15EE101A203140296FD8B4EE2A
:10BA6000C67AF1EE10FA0CDD9FED525A9FED527A34
:10BA7000F0EE674AF4EEC74AF1EE10FA77EEC57AB7
:10BA8000F6DCF4EEE57AF1EE10FA0CD59FED495AAA
:10BA90009FED4A7AF0EE674AF4EEC74AF1EE10FAEB
:10BAA00077EE857AF6D4F4EEC67AF1EE10FA3CDD44
:10BAB00074EE677A27EEA75AF0EE632AE5EE032AC2
:10BAC0009FED3F7AA5EE227A65EE274AB8EE005A3E
:10BAD000E4EE877A67EE857A87EE887A0132A242B1
:10BAE00003F1280343ED048A03ED037A03ED017AA1
:10BAF00043ED028A83ED000AC3ED056AC3ED026AD5
:10BB0000C3ED016AC3ED046AC3ED036AFFF646AFF5
:10BB1000783085427FF43AAF08F57078B8F5346F25
:10BB200005F570757FF42EAF75E69FED267AF4EE7D
:10BB3000C77AF1EE10FA48BF75EEE77ABAE7F0EE91
:10BB4000667AC9E79FED1F5AF4EEC57AF1EE10FA56
:10BB500048BF75EEE77A5DE7B7EE000AF0EE408A7F
:10BB6000B0EE408A72E700BF0800001083F9223E61
:10BB7000BD378635945A0020402F0020555555403A
:10BB80006E12833A48E1FA3ECC0700100060EA48A2
:10BB900027D4D2360AD7233C00004842DB0F494065
:10BBA000DB0F49C0DB0FC93F92E741B99730083C32
:10BBB00000000000DB0FC940E4CB1641E4CB16C106
:10BBC00015A82ABEDB0FC9BF305100204C18001049
:10BBD0002DE9F04F07EE900A2DED068B9FEDF07AE0
:10BBE000F04BDFEDF16AB3F8A429F04F93F8AA59AE
:10BBF000C7F81C08B8EE679A0AEE102A87EE095AB1
:10BC0000B3F8A629C7F8D85783B008EE102AB3F8BE
:10BC1000A829DFEDE77AB8EE4AAA08EE902AB8EE36
:10BC2000C88A3AEE0A7AF8EEE88AB4EEC78AF1EEEC
:10BC300010FA68EEA77AB4EEE65A07F2CC73B8BFF2
:10BC4000B0EE478A0022F1EE10FA83ED028A83ED0E
:10BC500001AAC3ED007AC7F8DC2700F1038307EEE1
:10BC6000905AF8EEE77AB7EE007AC7EE279AD14BF2
:10BC7000DFF878A3194614319C4601919AF8982070
:10BC800003F12C04F6EE005A65EE256AF7EE007A11
:10BC900086EE887ADFEDC83ADFEDC84A9FEDC86AC4
:10BCA000D3ED05AAB4EEE77AF1EE10FAB8BFB0EE24
:10BCB000677ABDEEC77AB0EE004A17EE106AB8EEAA
:10BCC000C77AC7F8786AC5EE076A87EE875A66EEC4
:10BCD000A36AACEC015A8AEE267AC8EE267A37EED1
:10BCE000257A77EEA57AB4EEC47AF1EE10FAB8BFF1
:10BCF000B0EE447AF4EEE47AF1EE10FABDEEC77AD3
:10BD000088BFF0EE647A17EE100AFDEEE77A00F1D4
:10BD1000FF3B17EE901ABBF1230FA8BF4FF0230B88
:10BD2000CCED006A012E01F1010CB8BF0126BCF177
:10BD3000230F2BEAEB7BE04629EE066AA8BF4FF003
:10BD40002308E345C8BFD846C7F8840AC7F8881A4D
:10BD500083ED046AA8EB0B0797FBF6F70137002A7F
:10BD600040F0E380DFED970ADFEDA15A9FEDA12AB5
:10BD70009FED955ADFEDA32A9FEDA33ADFEDA33A9D
:10BD80009FED924ADFEDA21A0AF19C0107EE902A7C
:10BD9000B8EEE76A66EE207A37EEA57AFDEEC76A5E
:10BDA00016EE903A2033402B00F21582F3EE026A31
:10BDB000B4EEE66AF1EE10FA0CDDDFED904ADFED4D
:10BDC0008E6AB0EE471AB4EEE61AF1EE10FA37EECC
:10BDD000647AF6DCB4EEC57AF1EE10FA0CD5DFED3C
:10BDE000874ADFED876AB0EE471AB4EEE61AF1EE45
:10BDF00010FA37EE247AF6D4B4EEE57AF1EE10FAC2
:10BE000040F3FE81DFED726A36EEC77A67EE076AAD
:10BE1000B0EE431AA6EEA21AB0EE630AA1EE260A0D
:10BE200067EE264AFDEEE76AA4EE807A16EE903AB7
:10BE30002033402B27EE047A00F2D781DFED656ACC
:10BE4000B4EEE66AF1EE10FA40F300829FED6B0A61
:10BE50009FED691AF0EE676AF0EE664AF4EEC14AA9
:10BE6000F1EE10FA76EEC06AF6DC9FED591AF4EEA8
:10BE7000C14AF1EE10FA13D59FED601ADFED604A6A
:10BE8000B0EE660AB4EEE40AF1EE10FA76EE816ADC
:10BE9000F6D4DFED506AB4EEE66AF1EE10FA0CDD8E
:10BEA0009FED566ADFED546AF0EE674AF4EEE64A1B
:10BEB000F1EE10FA77EEC67AF6DCF4EEC57AF1EE22
:10BEC00010FA0CD59FED4D6ADFED4D6AF0EE674A32
:10BED000F4EEE64AF1EE10FA77EE867AF6D4F4EE56
:10BEE000E57AF1EE10FA40F38381DFED396A76EE00
:10BEF000E77A67EEA76AF0EE434AE6EEA24AB0EEB2
:10BF0000631AA4EEA61A27EEA66AE6EE017A67EE99
:10BF1000847A0132242A81ED007AC1ED017A01F19F
:10BF200008017FF433AFDFED2CAA4FF0000944E99C
:10BF3000059B44E902764FF490720021204644F8B4
:10BF40000C8C68F01AFB4FF49072A018002168F076
:10BF500014FB224B04F51574A342E8D1019BDFEDDD
:10BF6000207AC3ED00AA012329EE279A8AF8983097
:10BF7000002D00F02B81DFED1B7A1B4E9FED142A64
:10BF8000DFED112AC7EEA81AA6F1140406F5117701
:10BF900038EE4A8AB1EE611A69EE889A3EE000BF37
:10BFA00000247449305100200000FA4408000010B9
:10BFB0000AD7233C840A0010398E633C00000C42EF
:10BFC0009C534937C3B8B23DDB0F49C072F97F3F7C
:10BFD000DB0F494000001042BC297E3FAC1100102D
:10BFE00027D4D23600004842E807001000110010A4
:10BFF000DB0FC93F00000000E4CB1641DB0FC94056
:10C00000E4CB16C192E741B99730083C15A82ABE87
:10C01000DB0FC9BF000010C20000807F5FED0C5A2B
:10C020005FED0C6A234630460022B7EE005A07EE59
:10C03000902AF8EEE77AB6EE007A77EE877AB0EEDD
:10C040004A7AA7EEA97AF0EE477A29EE077AE0EC71
:10C05000017AFDEEC77A17EE901A2031402900F2DE
:10C06000D780B4EEC27AF1EE10FAF0EE477A0CDD2A
:10C070001FED1E4A5FED204AB0EE676AB4EEE46A37
:10C08000F1EE10FA77EEC47AF6DCF4EEE27AF1EE35
:10C0900010FA0CD51FED274A5FED274AB0EE676A0C
:10C0A000B4EEE46AF1EE10FA77EE847AF6D4F4EEA8
:10C0B000E57AF1EE10FA40F3B58072EE677A67EE3A
:10C0C000A74A5FED303A1FED304A1FED306AA4EE0B
:10C0D000A34A67EEA43AA4EE246AF0EE454AE3EEE2
:10C0E000867AB0EE456AE1EE274AA1EEA76A84EEB1
:10C0F000864AC5EE064A77EE257AFDEEE73A13EE5C
:10C10000901A2031402900F28A80B4EEE57AF1EEEF
:10C1100010FA0CDD1FED473A5FED493AB0EE677A51
:10C12000B4EEE37AF1EE10FA77EEC37AF6DCF4EED1
:10C13000E27AF1EE10FA0CD51FED503A5FED503A6D
:10C14000B0EE677AB4EEE37AF1EE10FA77EE837A26
:10C15000F6D4F4EEE57AF1EE10FA6DDD72EE677A60
:10C1600027EEA73A5FED590A5FED593A1FED597A6C
:10C17000E3EE203A63EE270AA3EE237AF8EE003AC4
:10C18000E0EE877A67EEA37A87EE867A0132AA42DA
:10C1900003F12803C3ED0B4A83ED0C7A83ED0E7A8D
:10C1A000C3ED0D4A83ED0F4A83ED145AC3ED116AB6
:10C1B000C3ED106AC3ED136AC3ED126A7FF437AFA3
:10C1C000C834A74206F114067FF428AF03B0BDECD3
:10C1D000068BBDE8F08FFDEEE76AB0EE427A16EE10
:10C1E000903A2033402B7FF629AEF0EE427A90E66B
:10C1F000F4EEE17AF1EE10FA48BF75EE677A78E670
:10C20000B4EEE17AF1EE10FA48BF35EE477AFDE57B
:10C21000B7EE004AF0EE444AB0EE446A6BE7F0EE47
:10C22000667AB1E71FED866AF4EEC67AF1EE10FA8F
:10C2300048BF72EEE77A42E71FED8B7AF4EEC77AD9
:10C24000F1EE10FA48BF72EEE77A89E75FED8F6A88
:10C25000B4EEE66AF1EE10FA48BFF0EE676A3FF519
:10C260000BAE2AE65FED949AC7F8D8271546FEE490
:10C270000848002302461178022902F1060204D080
:10C280000133062BF7D10020704703EB430300EB8B
:10C2900043007047801E002000B50021084B83B08A
:10C2A0000846C3F8AC1934F015F80422054B019385
:10C2B0000DEB0201062034F001F803B05DF804FB39
:10C2C000305100205475C52A70B5461E00F1310565
:10C2D000344614F8011F601E801BFF29C0B201D034
:10C2E00033F0F8FFAC42F4D1A02056F09BFB0121C3
:10C2F000022033F0EFFF40F2E93401E0013C04D0CA
:10C300004220FFF715F90028F8D16220FFF710F955
:10C310001321242033F0DEFF2520092133F0DAFF3A
:10C32000BDE87040A02056F07DBB00BF0D4B0E490C
:10C33000D3F8BC340A8810B40C4C5B08A4FB03434C
:10C3400022F45C729B0C01381204013B012480B280
:10C35000120C9BB20A80C8620B858C825DF8044B7C
:10C36000704700BF402F0020000C004083DE1B43BD
:10C3700038B50C4C0546A11CD52254F00BFC2B689B
:10C38000A342C5E90043A3EB04000AD004F1400234
:10C39000611C2960237802F8013BD5E90041A142E4
:10C3A000F6D138BDE05A002010B5204B84B0C82427
:10C3B00003F51F6103F6B1122128CDE9022183F8AC
:10C3C000B04918D00CD802281ED0082825D102A8C0
:10C3D00001900AF0E5FE0198FFF7CAFF04B010BD16
:10C3E00029281AD102A801900AF094FD0198FFF7BC
:10C3F000BFFF04B010BD02A801900AF0D5FD01985E
:10C40000FFF7B6FF04B010BD02A801900AF014FFB8
:10C410000198FFF7ADFF04B010BD02A801900AF02B
:10C4200035FE0198FFF7A4FF04B010BD3051002085
:10C4300010B582B00A788DF80720040A18238DF809
:10C4400004308DF806008DF8054056F079F901AA00
:10C4500003481146042348F04FF902B010BD00BF55
:10C46000F459002010B582B0040A192200238DF877
:10C4700001408DF800200C468DF803308DF8020045
:10C4800056F05EF96A4605481146052348F034F92E
:10C490009DF80430237002B010BD00BFF459002095
:10C4A00010B58CB000234CF20502044601A9CDE979
:10C4B0000633CDE90833ADF800208DF802300322B1
:10C4C0000B930123CDE903128DF814308DF8283039
:10C4D000CDF808D048F056F9204602A947F046FDAD
:10C4E000204648F04FF99DF806000CB010BD00BF83
:10C4F0002DE9F043764D774F83B005F138002422C3
:10C50000002168F03AF897F8314A0023EB65002CD7
:10C5100039D1714ED6F8F83053B39B6A43B36F48A4
:10C520009847836823B303886D4F013B9BB2BC4699
:10C53000384600210678032E00F106001CD0013198
:10C540000629F7D100223978022907F1060700F001
:10C550009E800132062AF6D1E96D052908D0481CD3
:10C5600002FB01C2E8650220002193801070518017
:10C57000204603B0BDE8F083062303FB01514B8F37
:10C58000013B9BB2DEE797F8300A07F63823C7F87D
:10C59000343A10B9504E0024BCE744F0D7FCC7F839
:10C5A000400A18B183790BB1412BF3D121464D4894
:10C5B00047F04CFE04460028ECD0D7F8343A474AFE
:10C5C0009868C3F8942008B12023C380092140F063
:10C5D0005BFDD7F8343A404E986845F003F942487D
:10C5E000D7F8348A47F068FE4FF00109A8F8040034
:10C5F0003220C6F8188186F81C9141F031FA0423E4
:10C60000D7F8340A4FF0000C0DEB03029F21CDF850
:10C6100004C047F07DFF9DF805809DF804309DF82B
:10C6200006104FEA082848EA034848EA010841464C
:10C6300006F1F80055F0C4FC00287FF46BAF4046CB
:10C64000FBF788FF034600287FF464AF9DF80600DF
:10C650009DF805209DF80710000240EA0240234A99
:10C660000843904217D0C6E94033A6F8FC30A6F83C
:10C670000831FBF76FFF804600287FF44BAF97F837
:10C68000300A44F063FC46F0D7FD444642E70621F9
:10C6900001FB02C267E7164AC6F8FC204FF40033DC
:10C6A0004FF00062C6F800314023A6F80831C6F802
:10C6B000042186F80A91FBF703FD06F1F80086F8DD
:10C6C000119155F0C9FB0B4BC6F8F83022E700BFBB
:10C6D000481E002030510020402F0020383000201C
:10C6E000801E0020685B0020404B4C0021AAEF0018
:10C6F000000400081C4607082DE9F041C94BCA4E4A
:10C70000CA4DCB4C0822C3F88820336B82B043F06B
:10C710000103336307464FF4C052284640F2023308
:10C7200088466946CDE9002308F050FF6B6AC14A8C
:10C73000DFF848C323F470436B626B6A43F4204311
:10C740006B626B6A23F470236B626B6A43F4202381
:10C750006B62736CB84D43F4804341F2B40173646F
:10C76000736B44F8018041F2BC0143F080036750D1
:10C7700041F2B80EB14973630227C4F8D41AB04E1F
:10C78000B04BB14944F80E5084F8D87A4FF0A04528
:10C79000AE4FC4F8DC5AC4F8E06AC4F8E83AC4F80A
:10C7A000241B05F5326506F5A07603F51073A1F597
:10C7B000D071C4F8EC7AC4F8285BC4F8F06AC4F805
:10C7C0002C3BC4F8F41A012307F51077A5F5E465AE
:10C7D000A6F5A066A1F58C61C4F8D0CAC4F8307B78
:10C7E000C4F8E45AC4F89C6B84F8DB3A05F5A075EC
:10C7F000536106F5B076C4F8601B84F8E23B194635
:10C80000934B944AC4F8685BA7F5BC67A035C4F89D
:10C81000746B914EC4F8707BC4F8783B07F5D4571D
:10C8200003F56953C4F87C5B4FF050250020DFF816
:10C8300050E2DFF850C2C4F8A02BC4F8A47B02F584
:10C84000A04207F5A047C4F8A86BC4F8AC3B06F5B6
:10C85000A046A3F54853C4F8B05B04F52D65C4F8B1
:10C86000B42BC4F8BC6BC4F8DC3BC4F864EBC4F86C
:10C870006CCB0246C4F8B87B2B4684F8E40B402608
:10C8800083F81C21A3F822210132042AC3E949605C
:10C8900083F81D1183F81F01C3F8300103F1280349
:10C8A000EED1002211462B46402083F87423A3F8D2
:10C8B0007A230132042AC3E9DF0183F8751383F870
:10C8C0007713C3F8881303F12803EED14FF0A04388
:10C8D00062489A6822F001029A60DA6842F04002E7
:10C8E000DA6007F0F9FE94F8D93A0022212161F3C9
:10C8F00017420BB142F4801294F8D31AD4F8DC3A00
:10C9000001299A6300F0E380DA68D4F8DC6BD4F88C
:10C91000E00AC2F3076121F0600141F0400161F3D8
:10C920001F620021DA603160026861F3CC2202608C
:10C9300094F8DB2A012A00F0B7801021484808F05B
:10C940001DFA474808F000FAD4F8E00A94F8D13A02
:10C9500000224FF0FF31026142618161C26153B335
:10C9600005F114073F4E114607EB83074FEA830C8E
:10C970004FF0FF0E56F8042F1368002BACBF0023B6
:10C980004FF09043B74213601161C2F808E0F1D153
:10C9900005F15003344963440027FF2651F8042F62
:10C9A0001568002DACBF00254FF0904599421560E9
:10C9B00017619660F2D1036994F8D31A43F4807337
:10C9C0000129036160D0D4F8DC2A28480023936150
:10C9D00000294FF0FF336FF0804151615360516186
:10C9E00014BF00231023906143F47013916943F442
:10C9F000605343F008030B43936141F2B80193681D
:10CA0000615843F0010393600B689847184B194A2B
:10CA1000DA606846184B009308F08EFB02B0BDE860
:10CA2000F08100BF00E100E0003802400000024059
:10CA300030510020003C01404C04002040004001E7
:10CA40000008005000090050000B00502009005061
:10CA5000C005005000100050003000500C5C002059
:10CA6000005C0020145C0020505C00200008008066
:10CA700000ED00E00005FA05430200010804010092
:10CA80002005005060050050D4F8DC2A144B0363E5
:10CA90006FF08041134D00234FF0FF3093615161DF
:10CAA0005060516195619FE701680F4A0F4E41F058
:10CAB00003010160802159629E62C3F80421E022D3
:10CAC000C3F80821C0F24002C3F80C2135E79A6888
:10CAD00022F03E0141F02A0161F307029A6013E758
:10CAE0000301810000080080A000400080002000B9
:10CAF00010B51A4C14F8330CC0B9194B83F8B100B7
:10CB0000C3F8B40014F8303C012B05D0022B21D01F
:10CB100054F82C3C1BB910BD124B44F82C3C124964
:10CB20005B68BDE81040A1F10C00184744F00EFA14
:10CB300014F8312C0A49003A18BF012281F8B120BB
:10CB4000C1F8B4000028DDD01F22C280202140F0AF
:10CB50009BFAD7E7054B44F82C3CE0E7286200201D
:10CB6000481E00208C040020006200206804002081
:10CB700091B10A6B824214D9144B5A69914220D365
:10CB80004C3991421DD30B6B9842F9D38B6B984271
:10CB9000F6D80B46184670470C4B59690A6B904201
:10CBA00012D30B680BB9F5E70A6B90420B4602D320
:10CBB0008A6B9042EED951F84C3F002BF4D11846C5
:10CBC00070470023184670470A46D9E728620020BC
:10CBD0002DE9F047CC0143D10346224A43F8082B04
:10CBE0004FF0FF324260022418467E26DFF878803C
:10CBF000D8F818902644013E051D49466FF070474D
:10CC00004FF0010A08E0A3421CD0631C45F8043C25
:10CC1000321B1C460435CAB10B6BA34202D88B6B86
:10CC2000A34204D22046FFF7A3FF014690B10A7940
:10CC30004B6B002AE7D1A34204D0E6D245F8042C7E
:10CC4000631CE5E745F8047C631CE1E7C8F81810AD
:10CC5000BDE8F08745F804AC321B631C4946D8E7B1
:10CC60008026C3E7F8FFFF0F2862002070B44479E4
:10CC700041BB03684FF400524FF400762025022197
:10CC80003CBB1A8C22F001021204120C1A841A8B7B
:10CC9000188C22F0F30280B2120420F00A00120C69
:10CCA000014342F0010241F001011A8319841A8BF9
:10CCB00022F00C021204120C1A831A8B92B270BC6E
:10CCC0001A83704700220368164615461146002C49
:10CCD000D7D0042C21D0082C38D0198C21F48051C5
:10CCE0000904090C19849C8B1D8C45F6FF7040F6D5
:10CCF000FF4128402140024342F4805241F48071B8
:10CD000099831A849A8B22F440621204120C9A833B
:10CD10009A8B92B270BC9A8370471A8C22F01002E0
:10CD20001204120C1A84188B198C89B240F6FF4237
:10CD300021F0A00102400D4342F4807245F010053D
:10CD40001A831D841A8B22F44062B3E71A8C22F4F2
:10CD500080721204120C1A84998B1A8C21F0F30140
:10CD600092B2090422F42062090C324342F4807228
:10CD700041F0010199831A849A8B22F00C02C4E7D6
:10CD800038B50E4D0446006808F024FBD5F8BC24E5
:10CD9000204652084FF6FF713FF0ECFA2046002182
:10CDA000FFF764FF064BC5F8283D05F628512046DD
:10CDB0000022BDE838403FF021BA00BF402F0020DC
:10CDC000A9130208036870B55E6A26B133460522CE
:10CDD000BDE87040184704460D464E1D00E023682C
:10CDE0009B68204698470028F9D0236815F8011B56
:10CDF0001B6820469847B542F1D170BD036870B5F5
:10CE00005E6A26B133460822BDE8704018470446E2
:10CE10000D4601F1080600E023689B68204698470C
:10CE20000028F9D0236815F8011B1B682046984795
:10CE3000B542F1D170BD00BF0A44914217D010B481
:10CE40000139541E11F8013F08225840430010F0E8
:10CE5000800F08BF400083F0D50314BFD8B2C0B222
:10CE6000013AF3D1A142EDD15DF8044B7047704710
:10CE70002DE9F047164D0746002095F9259005F15C
:10CE80002C0684B007EB010805F5337504464FF016
:10CE9000B60A3368ABB193F83830142B11D019F1BE
:10CEA000020F01D04B450CD1002269463046CDE936
:10CEB0000244CDE90078ADF808A08DF80D4034F0BB
:10CEC00015FEE036B542E4D104B0BDE8F08700BFFE
:10CED000286200202DE9F0479AB0DDE9226ADDF8EA
:10CEE000909004460D461746984602E0206841F0AF
:10CEF000F3FA206841F0F8FA0028F7D101466422DD
:10CF000001A867F03AFB264B8DF80450CDF85CA0E1
:10CF10000293002D40D0AB1E012B3FD9042D14BF2E
:10CF2000002203221F4B0396D3F884308DF805208E
:10CF30001E440123CDE9059404968DF85B3037B18A
:10CF40004246394607A867F0B7FA8DF85A80164E60
:10CF500096F80E9300231893B9F1000F19D196F8A3
:10CF60000D03642202FB006001A900F5447067F024
:10CF7000A3FA012386F80D9386F80E33236843B194
:10CF800043463A46294620461AB0BDE8F04712F01B
:10CF90003FB81AB0BDE8F0870522C3E70222C1E717
:10CFA000F4640020402F0020286200200C480D4B24
:10CFB000D0F8901310B40C4CC0F880338A1E223184
:10CFC000B0F8AE331B01A4FB03C3DB08A3F5B063C9
:10CFD00022F8023F9142F3D15DF8044B704700BF45
:10CFE00028620020A97E0208CDCCCCCC70B5084CBC
:10CFF000251D2E4614F8010B37F068FA28B1037886
:10D0000005F8013BB442F5D170BDFF23F8E700BF3E
:10D01000FC6500202DE9F0471D4F012607F10805AA
:10D02000B2464FF03C094FF0000817F8010B43F0EF
:10D030008DFF044690B180F80690C671FB7803F02E
:10D040007F02012A18D013F0800F20460DD185F8F9
:10D05000048044F0C1FB85F805802C600136052E64
:10D0600005F10805E1D1BDE8F08785F804A044F09A
:10D07000B9FB85F805A0F0E71B0605D40121204681
:10D0800040F002F8FB78DEE744F0ACFBF6E700BFC7
:10D09000046600202DE9F04FDFF8FC91DFF8FCA1D9
:10D0A00083B009F10C06012419F8018BB8F1000FC7
:10D0B00000F0C6804FEA1815013D052D08F00F025B
:10D0C00000F2C1800AEB4503B3F8840040FA02F78E
:10D0D00017F0010700F0D28001239340013B184074
:10D0E000554464F0B7FC95F89030664F184407EB50
:10D0F000C00704237761FC71BB71002302E0152B8C
:10D1000000F09E8003EB43025F49895C41454FEA92
:10D11000430B03F10103F2D15C4B1A4492F8511115
:10D12000002900F0AD8040463FF070FB05462846E0
:10D130003FF08CFB0378002B40F08280534B5B4424
:10D14000042283F8914183F89021002D78D0002F9C
:10D150005DD03B68287A03F13F4202F57E020AEB7C
:10D1600092224FF0010C92F8982002F01F01520910
:10D17000032A0CFA01F171D0042A67D0022A75D073
:10D18000B7F804E0BEFA8EF2C2F11F02C2F3CC017E
:10D1900003EB810102F007020F6A92004FF00F0CBF
:10D1A0000CFA02FC27EA0C070F620F6A9040384322
:10D1B000002208624FF0010B11460BFA01FC3CEA19
:10D1C0000E0001F101011ED118680327974020EAE3
:10D1D00007001860D3F800800220904040EA080061
:10D1E0001860986820EA0700986098689860586806
:10D1F00020EA0C00586058685860D86820EA070098
:10D20000D860D868D860102902F10202D5D1204B2D
:10D21000204AB3F80414B3F8063400910020013416
:10D220000190B2FBF3F330469BB22946E4B233F0EF
:10D230007BF80123092C737406F118067FF434AFD0
:10D2400003B0BDE8F08F0027776156E7DFF850C0E4
:10D25000DCF830200A43CCF8302091E7DFF840C0FA
:10D26000DCF840201143CCF8401089E7DFF830C0EB
:10D27000DCF844201143CCF8441081E777613CE7A7
:10D280000D4654E7FC30002090300020402F002055
:10D290002862002040420F00306600201C4607082C
:10D2A0000038024070B5044684B04FF4004039F0B5
:10D2B00095F880B300234FF4E131032590F9040081
:10D2C0000293CDE900151A464FF4004139F0E3F816
:10D2D000124BC3F8D404F0B1012C40F6980208BFF9
:10D2E0004FF496620E480F4DA3F8E0244FF461719D
:10D2F0000D4AC3F8EC040A2683F8D844C3F8DC646A
:10D30000A3F8E214A3F8E414C3F8E854C3F8F02433
:10D31000012004B070BD0020FBE700BF28620020A0
:10D320004514020869FF01085DFF01082DE9F0417D
:10D33000214E224F96F8133587F8903E06F5A266E7
:10D3400007F6946500244FF0050816F8010B20BB82
:10D3500028600134032C05F10405F6D197F8901EDE
:10D36000D7F8940EC94301F0010144F041FA97F84F
:10D37000901ED7F8980E81F00201C1F3400144F0ED
:10D3800037FA97F8901ED7F89C0E81F00401BDE89B
:10D39000F041C1F3800144F02BBA43F0D7FD0134D2
:10D3A00001212860E3B210B180F80680C3712868BB
:10D3B0003FF06AFECEE700BF28620020402F002029
:10D3C0002DE9F0412A4C2B4DB4F81865A5F8A06E54
:10D3D00082B0EEB994F8140543F0B8FD94F8152521
:10D3E000C5F8A40E003A18BF012285F8A22E48B154
:10D3F00094F816152B22002914BF11210121C28097
:10D400003FF042FE002002B0BDE8F04145F04CBCC8
:10D4100094F81485002240462B213FF04DFA074630
:10D42000404643F093FDF8B1F7B12B22C5F8BC0E8E
:10D43000C280397AFCF78CF84FF000080E4AB2FB34
:10D44000F6F3C3F34F0000909BB23946CDF8048049
:10D4500005F6A860A4F81A6532F066FFD5F8A83E74
:10D46000C3F8008085F8B98E02B0BDE8F08100BF36
:10D4700028620020402F002040420F002DE9F84F85
:10D48000254C94F8283584F81C3504F21F570026E3
:10D4900004F23C545FFA86FB0BF101085FFA88F84E
:10D4A000012117F8010F42460E448A463FF004FA64
:10D4B0004FF00009054640B3387804F80E9C04F894
:10D4C0000D9C04F80FBC04F810AC44F8045C43F065
:10D4D0003DFD18B180F806A080F80780297AFCF796
:10D4E00037F80E4A002128463EF044FF0C4B2360DB
:10D4F0000C4B221D21462846C4E901393EF07EFE30
:10D50000697928684A4632F08BFE082E04F11C0423
:10D51000C0D1BDE8F88F00BF2862002040420F0054
:10D520005902040809C5030870B52C4C2C4B94F81B
:10D530005406C4F84C3600220221C4F80C26C4F864
:10D540001026C4F81426C4F84826A4F850263FF044
:10D55000B3F9002841D0234B0668054603F1C0010A
:10D560005A7C12B15A6896422BD018338B42F7D1AD
:10D57000002394F85406C4F8385584F82C3543F049
:10D58000E5FC08B10223C380297AFBF7E1FF2846B6
:10D59000154A00213EF0EEFE144A1549C4F83C1528
:10D5A0000026111F2846134BC4F84035C4F84465C3
:10D5B0003EF024FE697928683246BDE8704032F0BA
:10D5C0002FBE30465DF044FD328D0B4992B2531CA4
:10D5D000B0FBF3F081F82803CAE770BD2862002091
:10D5E00000FFFF003C00001040420F006867002071
:10D5F00031C50308CDC60308880100202DE9F04F8E
:10D60000C04F87B00B460446C022BF480393002199
:10D6100066F0B3FF97F855368BB9BC4DD5F8243278
:10D62000002B7ED00022039883F82C00012183F880
:10D630002D101A6383F82E2007B0BDE8F08F97F8FD
:10D640005636002B7CD0DFF8D88298F83C31012B7D
:10D6500000F0A180022B00F08180AD4EAB4D98F818
:10D6600032C198F82E710FCE05F5F87404940FC4EA
:10D670000FCE0FC496E80700BCF1000618BF0126C4
:10D68000A44B85F82862072F84E80700C5F8083204
:10D6900000F21881042F00F25581DFF86CA2DFF848
:10D6A0008CB20026039BB3424FF0030137DD1BF819
:10D6B000019B08EB090309F1010793F83341FFB21D
:10D6C00020463A463FF0F8F8034620461C46002B19
:10D6D00000F0108143F03AFCCAF8140018B14FF082
:10D6E00003038371C77198F82F2198F82E31F1B296
:10D6F000002A00F0FD80E27982F0010200922046CB
:10D700004A4601365EF040FA002800F0F3804FF000
:10D710000103082E8AF811300AF1180AC2D1049BBD
:10D720009EE07D4E7D4C0FCE0FC40FCE0FC496E809
:10D730000700A4F1200384E80700C5F824327BE742
:10D74000774B039993F83021704D003A204618BF6B
:10D750000122FAF7A1FFC5F824025FE798F83231F9
:10D76000002B3FF47AAF98F82E31082B13D1684E76
:10D77000664D684F0FCE05F5F87404940FC40FCEB4
:10D780000FC496E80700012384E8070085F82832D3
:10D79000C5F8087299E05D4D624E039BC5F82C32C6
:10D7A0000FCE05F5DE740FC40FCE0FC496E8070048
:10D7B00098F832C10023BCEB030C84E8070018BFC3
:10D7C0004FF0010C1946584898F82E3187F89036DA
:10D7D0004FF44C7285F828C287F858168B4666F0CD
:10D7E000CCFE494B0593514B049305F50E76D5F8C5
:10D7F0002C325B455EDD049A12F8013B04924344EF
:10D8000093F8334120463FF0DDF88146204643F04F
:10D810009DFB98F82F310446002B4DD099F8073026
:10D8200083F0010A0AF0010995F8280209F10109BB
:10D8300087F8579608B18AF0010A002C49D0A179DF
:10D8400089B141290FD03A4B3A493B4AC5F8D83102
:10D85000012387F85836C5F8D411C5F8E021002314
:10D86000C5F82432DAE6204645F05CFA4FEA491161
:10D870000BF1010B41F009014FF00303716170607E
:10D88000F46086F810A084F807B0A37120463FF03A
:10D89000FBFB1AF0010F204611D043F09DFF059AC3
:10D8A000F3685361BBF1080F02F1180306F120067B
:10D8B00005939CD1214BD3E799F807A0B2E743F039
:10D8C00091FFECE7082F7FF4E8AE1D4BC5F830322E
:10D8D000E3E6204645F026FA4FEA491949F00901E6
:10D8E0000BF1010B71617060F46086F810A0CDE758
:10D8F000E27903E7104B0E4AC5F81432C5F80C2242
:10D900000023ADE7286200203C0000100011001049
:10D9100038470708319406080C4707088468002038
:10D92000402F002064470708BC6800207E3000209C
:10D9300069A704086DA7040861A70408BC120010B9
